:020000040800F2
:1000000038060020450100080F1E0008A919000845
:100010000D1E0008FD01000861230008000000001B
:10002000000000000000000000000000131E000897
:10003000FF01000800000000111E0008151E000846
:100040005F0100085F0100085F0100085F01000810
:100050005F0100085F0100085F0100085F01000800
:100060005F0100085F0100085F0100085F010008F0
:100070005F0100085F0100085F0100085F010008E0
:100080005F0100085F0100085F0100085F010008D0
:100090005F0100085F0100085F0100085F010008C0
:1000A0005F0100085F0100085F0100085F010008B0
:1000B0005F0100085F0100085F0100085F010008A0
:1000C0005F0100085F0100085F0100085F01000890
:1000D0005F0100085F010008552300085F01000868
:1000E0005F0100085F0100085F0100085F01000870
:1000F0005F0100085F0100085F0100085F01000860
:100100005F0100085F0100085F0100085F0100084F
:100110005F0100085F0100085F0100085F0100083F
:100120005F0100085F0100085F0100085F0100082F
:10013000DFF80CD000F02AF800480047012400083E
:10014000380600200648804706480047FEE7FEE7DD
:10015000FEE7FEE7FEE7FEE7FEE7FEE7FEE7FEE777
:10016000811E000831010008D2B201E000F8012B25
:10017000491EFBD270470022F6E710B513460A4627
:1001800004461946FFF7F0FF204610BD064C074D08
:1001900006E0E06840F0010394E807009847103457
:1001A000AC42F6D3FFF7C8FF64240008842400089B
:1001B00070B5044600688168C943C9071CD18168CD
:1001C00021F00101816000F0F9FA05460FE000BF5F
:1001D00000F0F4FA401B022809D9A06A40F0100090
:1001E000A062E06A40F00100E062012070BD20687A
:1001F0008068C043C007EBD0002070BDFEE77047A9
:1002000070470000F8B50024009490F8242025469B
:10021000012A12D0012280F824204A681F23072ACD
:100220000DD20668776B521E02EB820293409F4309
:100230000B6893401F43776319E00220F8BD0668FE
:100240000D2A0AD2376BD21F02EB820293409F43E2
:100250000B6893401F43376309E0F76A0D3A02EBDE
:10026000820293409F430B6893401F43F7620A68E2
:10027000072306680A2A0AD3F7680A3A02EB420201
:1002800093409F438B6893401F43F76008E03769B2
:1002900002EB420293409F438B6893401F433761B8
:1002A0000A68102A01D0112A20D1124B02689A4202
:1002B00017D193681B0219D4936843F40003936029
:1002C0000968102912D10C490C4A0968B1FBF2F1F6
:1002D00001EB8101490000E0491E00910029FBD19A
:1002E00004E0816A41F020018162012480F82450F9
:1002F0002046F8BD002401401800002040420F00B5
:100300002DE9F04104004FF0000514D0A06A00264A
:1003100028B9E66284F82460204600F083F820467D
:10032000FFF746FFA16A01F01001014304D0A06A63
:1003300040F01000A0626BE0A16A21F4885141F006
:100340000201A162334923688B42E16904D1B1F50E
:10035000402F01D14FF40021277B4FF4807C41EAEC
:10036000470261680A43A168614509D0012907D0A5
:100370005FF0000194F814E0BEF1010F02D00AE032
:100380006146F7E7C7B1A76A47F02007A762E76AA7
:1003900047F00107E7625F6827F469470F435F6032
:1003A000236899681C4F394011439960A1686145E1
:1003B0000BD0012909D00CE0DFF860E0A7690EEB53
:1003C00047370F4347F40061E5E7218A0D05A5F59E
:1003D00080152168CB6A23F470032B43CB6221681C
:1003E00089680F4B1940914208D1E662A16A21F059
:1003F000020141F00101A162BDE8F081A06A20F094
:10040000020040F01000A062E06A40F00100E062EB
:100410000120F1E7003C0140FDF7E1FF00E0FFFFB4
:10042000FE0E1FFF00B585B00021009101910291E1
:10043000039100680E49884218D10E48816941F441
:1004400000718161816901F400710491816941F059
:10045000040181618069694600F004000490102065
:10046000009003200190044800F0A0F805B000BD02
:100470000024014000100240000801402DE9F05F17
:1004800090F821100024022903D004218163012463
:1004900085E001680A6822F00E020A6001680A68B5
:1004A00022F001020A603F4E3E4FB215DFF8F4C061
:1004B000DFF8F090DFF8ECA0DFF8E8B0DFF8E4E078
:1004C0000168783F13011502ACF1640CA9F15009E1
:1004D000AAF13C0AABF1280BAEF1140E4FF48018D0
:1004E000B14227D9B9420ED0614512D049451DD03D
:1004F000514518D0594518D0714501D1424615E0F3
:10050000294EB14201D1012210E0274E1436B142EA
:1005100001D110220AE0244E2836B14206D0224AE8
:100520003C32914201D11A4600E02A461E49091F79
:100530000A602BE0B94213D0614517D0494522D05B
:1005400051451DD059451DD0714501D142461AE093
:10055000B14202D14FF0807215E0134EB14201D189
:10056000012210E0104E1436B14201D110220AE0EF
:100570000D4E2836B14206D00B4A3C32914201D191
:100580001A4600E02A46074980394A60012180F86E
:100590002110002180F82010416B01B188472046CE
:1005A000BDE8F09F80000240080402402DE9F84FAA
:1005B000DFF8C891002409F1040A0AF1040B23466C
:1005C0000F270BF1040ED1E00125A54006EA050234
:1005D000AA4276D1DFF8A8C14E68A6EB0C086645A2
:1005E0002BD00DDC032E34D005DC36B3012E19D010
:1005F000022E2FD11BE0112E16D0122E2AD119E077
:10060000B8F5881F19D006DCB8F5803F15D0B8F5CD
:10061000801F1FD111E0B8F5001F0ED0B8F5041FE0
:1006200018D10AE0CB6815E0CB681B1D12E0CB683F
:1006300008330FE0CB680C330CE08B682BB1012B37
:100640004FF0080303D0456104E0042302E0056194
:1006500000E00023FF2A01D8064601E000F104066D
:100660004FEA840501D9A5F12005D6F8008007FAE4
:1006700005FC28EA0C0803FA05F548EA0508C6F85F
:1006800000804D68ED0070D53E4DAE6946F0010624
:10069000AE61AD6924F0030605F0010500953A4D01
:1006A00006EB050CDCF80850A607360F07FA06F82B
:1006B00025EA0805DFF8D480404503D14FF0000853
:1006C00025E052E0DFF8C880404502D14FF0010834
:1006D0001DE0DFF8C080404502D14FF0020816E06F
:1006E000DFF8B480404502D14FF003080FE0DFF897
:1006F000AC80404502D14FF0040808E0DFF8A0804C
:10070000404502D14FF0050801E04FF0060808FA15
:1007100006F848EA0508CCF808804D68D9F800606A
:10072000ED034D4601D5164300E096432E604D681B
:10073000DAF80060AD03554601D5164300E0964354
:100740002E604D68DBF80060ED025D4601D5164372
:1007500000E096432E604D68DEF80060AD027546FD
:1007600001D5164300E096432E60641C0A681646C5
:10077000E2407FF429AFBDE8F88F0000000401409B
:10078000000011100010024000000140000801406C
:10079000000C01400010014000140140001801400D
:1007A000001C0140C2680A4201D0416170470161EA
:1007B00070470AB1016170470904FBE7014880688E
:1007C000704700000C00002070B504001BD094F8A6
:1007D0003D00002520B984F83C50204600F0AEF8DA
:1007E000242084F83D002068016821F001010160A7
:1007F00000F086FA4D4A6168914201D84C4900E008
:100800004C49884201D2012070BD4B492368B0FB9E
:10081000F1F15E6826F03F060E435E606368934226
:1008200006D94FF4967359434FF47A73B1FBF3F141
:100830002368491C1E6A26F03F063143196261682D
:10084000914210D84900401EB0FBF1F2521CC2F395
:100850000B02042A01D2042022E0B0FBF1F0401C7C
:10086000C0F30B001CE0A368F3B301EBC10202EB81
:100870000116421EB2FBF6F2521C42F480421205EF
:1008800049D093B301EBC10202EB0111401EB0FB52
:10089000F1F0401CC0F30B0040F4804040F40040F5
:1008A0002168CA694CF6FF739A431043C861D4E9C2
:1008B0000701084321680A6822F0C002104308605B
:1008C000D4E9030101432068826848F2FF339A4368
:1008D00011438160D4E9050108432168CA6822F008
:1008E000FF021043C86001E00EE016E020680168D6
:1008F00041F0010101602564202084F83D0025635A
:1009000084F83E50002070BD01EB4106421EB2FB50
:10091000F6F2521CB3E70120C2E701EB4101401E91
:10092000B0FBF1F0401CC0F30B00B7E7A08601005C
:1009300080841E0000093D0040420F0010B586B0C3
:1009400000210091019102910391006813498842AE
:1009500022D1134CA06940F00800A061A06969464B
:1009600000F0080004904FF44070009012200190B5
:10097000032003900B48FFF719FE0B48416841F034
:10098000E06141F002014160E06940F40010E06183
:10099000E06900F40010049006B010BD005400405F
:1009A00000100240000C0140000001400248816834
:1009B00002781144816070470C000020074810B590
:1009C000016841F010010160032000F075F800207B
:1009D00000F006F800F024F8002010BD00200240CE
:1009E00070B50D4D04464FF47A712878B1FBF0F0E4
:1009F0000A490968B1FBF0F000F0DEFB48B9102CA1
:100A000007D200222146501E00F036F800206C600C
:100A100070BD012070BD00000C00002018000020F7
:100A20000C4808B5816941F001018161816901F0DB
:100A300001010091C16941F08051C161C06900F0BC
:100A4000805000900448416821F0E06141F000715D
:100A5000416008BD0010024000000140002809DB91
:100A600000F01F02012191404009800000F1E020C8
:100A7000C0F8001170470000F0B40E4B1B680C4624
:100A8000C3F30223C3F10705042D00D90425191D62
:100A9000072901D2002300E0DB1E012606FA05F13A
:100AA000491E214099409E40761E16403143F0BCBD
:100AB00001F057BC0CED00E0064900F007020868A1
:100AC0004FF6FF03184040EA0220034A1043086033
:100AD000704700000CED00E00000FA052DE9F84336
:100AE00005460078354CC00754D0E0690026C000A8
:100AF00008D4E06940F08050E061E069012600F030
:100B0000805000902E480168C90512D401688046C3
:100B100041F480710160FFF751FE074605E000BF18
:100B2000FFF74CFEC01B642823D8D8F80000C0058E
:100B3000F6D5206A10F4407021D0A98801F44071E4
:100B400081421CD0206A1F49012220F440700A60B3
:100B500000220A602062C00711D0FFF72FFE07466F
:100B600041F2883808E000BFFFF728FEC11B41456D
:100B700002D90320BDE8F883206A8007F4D5206AF3
:100B8000696820F44070084320621EB1E06920F0DB
:100B90008050E0612878800705D56068A96820F456
:100BA0004040084360602878C00605D560686969E0
:100BB00020F48000084360600020DBE70010024062
:100BC00000700040400442422DE9F0470F46050006
:100BD00061D0434E306800F00700B84209D2306857
:100BE00020F0070038433060306800F00700B8425A
:100BF00051D128683B4C810712D5400703D5606866
:100C000040F4E06060602878000703D5606840F435
:100C1000605060606068A96820F0F0000843606080
:100C20002878C00728D06868012810D021680228D9
:100C300010D0890700292EDA616821F003010143F1
:100C40006160FFF7BBFD804641F288390DE0216805
:100C50008903EFE78901EDE7FFF7B0FDA0EB08019D
:100C6000494502D90320BDE8F0876068696800F053
:100C70000C00B0EB810FEFD1306800F00700B842F4
:100C80000BD9306820F0070038433060306800F03E
:100C90000700B84201D00120E5E72878400705D5D4
:100CA0006068E96820F4E060084360602878000725
:100CB00006D56068296920F4605040EAC100606090
:100CC00000F03EF86168084AC1F30311515CC84066
:100CD0000649086006480068FFF782FE0020C2E768
:100CE00000200240001002404C24000818000020A0
:100CF0001000002001490120C864704700004242F2
:100D00000448054900684968044AC1F30221515C5E
:100D1000C840704718000020001002405C24000802
:100D20000448054900684968044AC1F3C221515C7E
:100D3000C840704718000020001002405C240008E2
:100D400012A185B00FC98DE80F0014A0144A0068E5
:100D500004905168134801F00C03042B10D0082BA9
:100D60000ED1C1F38343C9031DF803000AD55168AE
:100D700004AAC1F34041515C0A4A5043B0FBF1F070
:100D800005B0704708494843FAE70000020304052C
:100D9000060708090A0B0C0D0E0F101001020000C7
:100DA0000010024000127A0000093D002DE9F84FC2
:100DB000040070D02078C04DC00749D06868C0F3E7
:100DC0008100012807D06868C0F38100022809D19A
:100DD0006868C00306D52868800339D56068002894
:100DE000E7D035E06068B0F5803F0BD010B1B0F5CA
:100DF000A02F11D0286820F480302860286820F4C3
:100E0000802002E0286840F480302860606890B15B
:100E1000FFF7D4FC06460AE0286840F480202860EA
:100E2000F0E700BFFFF7CAFC801B642873D828686E
:100E30008003F7D50CE0FFF7C1FC064605E000BFD4
:100E4000FFF7BCFC801B6428F0D828688003F7D427
:100E500020789A4E80074FF001094FF0000839D5ED
:100E6000686810F00C0F07D06868C0F38100022892
:100E700009D16868C00306D42868800714D52069A2
:100E8000012808D110E02069B0B1C6F80090FFF742
:100E900095FC074605E00AE1FFF790FCC01B02281D
:100EA000C4D828688007F7D52868616920F0F80061
:100EB00040EAC10028600DE0C6F80080FFF77EFC24
:100EC000074604E0FFF77AFCC01B022823D82868F5
:100ED0008007F7D4207800072CD57948A169D9B1CB
:100EE000C0F80090FFF76AFC074604E0FFF766FCD5
:100EF000C01B02280FD8686A8007F7D571484FF4E5
:100F0000FA510068B0FBF1F0009000BF0098411E5C
:100F10000091FAD20EE080E0C0F80080FFF74EFCAE
:100F2000074604E0FFF74AFCC01B022875D8686A30
:100F30008007F7D42078400760D5E8690027C00013
:100F400008D4E86940F08050E861E869012700F0C2
:100F5000805000905C480168C90513D4016883463D
:100F600041F480710160FFF729FC824606E000BF72
:100F7000FFF724FCA0EB0A0064284ED8DBF8000041
:100F8000C005F5D5E06801280AD008B1052813D0BE
:100F9000286A20F001002862286A20F0040002E09C
:100FA000286A40F001002862E06841F2883B98B16D
:100FB000FFF704FC82460BE0286A40F00400286238
:100FC000EEE700BFFFF7FAFBA0EB0A0159455AD83C
:100FD000286A8007F6D50CE0FFF7F0FB824605E0B3
:100FE000FFF7ECFBA0EB0A0159454CD8286A8007B3
:100FF000F6D41FB1E86920F08050E861E06988B359
:101000006968C1F38101022944D00228C6F86080D2
:1010100004D0FFF7D3FB044638E034E0FFF7CEFB03
:10102000074604E0FFF7CAFBC01B02282BD828683C
:101030008001F7D4206AB0F5803F05D16868A168C7
:1010400020F4003008436860D4E908010843696867
:1010500021F4741108436860C6F86090FFF7AEFB96
:10106000044606E025E000BFFFF7A8FB001B0228AE
:1010700009D828688001F7D51BE000BFFFF79EFB69
:10108000001B022802D90320BDE8F88F28688001E0
:10109000F4D40EE00128F7D06868226A00F48031A9
:1010A000914204D1616A00F47010884201D001209D
:1010B000EAE70020E8E7000000100240000042429A
:1010C00080044242180000200070004070B5040007
:1010D00005D00025A56294F8510010B106E001206A
:1010E00070BD84F85050204600F02EF8022084F89D
:1010F00051002068016821F040010160D4E901013C
:101100000843D4E903121143084361690843218B62
:1011100001F400710843E1690843216A0843A16AA8
:10112000084321680860A069042101EA1040216891
:1011300048602068C16921F40061C16165650120D2
:1011400084F85100002070BD30B585B000240094B3
:1011500001940294039400681449884223D11448EE
:10116000816941F480518161816901F48051049168
:10117000816941F00401816180690E4D00F0040035
:101180000490A02000900220019003200390694663
:101190002846FFF70BFA4020CDE9000469462846AF
:1011A0000294FFF703FA05B030BD000000300140A3
:1011B000001002400008014010B5401EB0F1807FD1
:1011C00001D3012010BD4FF0E02460610F216017B2
:1011D00001F0C7F80020A06107202061002010BDA9
:1011E00010B590F83C20012A22D0012280F83C2042
:1011F000CA688C6822F4407222434C6822F48062F0
:1012000022430C6822F4006222430C6922F48052CB
:1012100022434C6922F400522243C969002322F47C
:1012200080420A4301684A6480F83C30002010BDC7
:10123000022010BD70B590F83C20012A19D001247D
:1012400000F83C4F0222427050F83C3C5A689D68BE
:1012500022F070060A684968324325F08005294368
:101260005A6050F83C2C916044700021017008468F
:1012700070BD022070BD10B504460068002200F069
:1012800076FE2068036A41F211110B4240F244429B
:1012900006D1036A134203D1436C23F40043436431
:1012A0002068036A0B4206D1016A114203D101682A
:1012B00021F001010160002010BD10B5040003D031
:1012C00094F83D0010B107E0012010BD002084F823
:1012D0003C00204600F00CF8022084F83D00211D5F
:1012E000206800F0F1FD012084F83D00002010BDD1
:1012F00000B585B000210091019102910391006831
:101300000F4988421AD10F48816941F40061816117
:10131000816901F400610491816941F008018161F2
:101320008069694600F0080004904FF480500090F6
:101330000220019003900448FFF738F905B000BD82
:10134000002C014000100240000C014070B5044622
:1013500090F83C00012817D0012584F83C50022069
:1013600084F83D002068826822F0770222F47F42F0
:1013700082600868502830D00DDC20284DD005DC74
:1013800098B310283BD148E0022070BD302844D0EB
:10139000402834D139E0602828D0702806D0B0F534
:1013A000805F2CD0B0F5005F29D10AE0CB68D1E98D
:1013B0000121206800F0E8FD2068816841F0770194
:1013C00009E0CB68D1E90121206800F0DDFD20684B
:1013D000816841F48041816011E0CA6849682068F1
:1013E00000F0A6FE5021206807E016E0CA684968B0
:1013F000206800F0AEFE6021206800F0CFFD84F888
:101400003D50002084F83C0070BDCA6849682068DF
:1014100000F08EFE40212068EFE72268014610466A
:10142000EBE72DE9F0410D46040003D094F83D00B0
:1014300018B108E00120BDE8F081002084F83C00EC
:10144000204600F03BF8022084F83D0020688168C7
:1014500044F2070291438160211D206800F034FDB1
:10146000226890689169166A2B68AF69034340F25D
:101470000330814341EA0721A868EF6908434FF62A
:10148000FC418843E96840EA0720014328692F6A44
:10149000000140EA0730084369686D6926F02206BA
:1014A00046EA05152943936022689061206801622D
:1014B000012084F83D000020BDE7000000B585B0A4
:1014C0000021009101910291039102682A49B2F131
:1014D000804F23D0294B2A489A4234D1CA6942F01E
:1014E0000202CA61CA6902F0020204928A6942F0E9
:1014F00008028A61896901F0080104913021009194
:101500006946FFF753F81F48416821F4406141F0F4
:10151000E06141F40061416005B000BDC86940F080
:101520000100C861C86900F001000490886940F0BA
:10153000040088618869694600F004000490032073
:101540000090114815E0114B9A42E5D1CA6942F06A
:101550000402CA61CA6902F0040204928A6942F074
:1015600008028A61896901F008010491C021009193
:101570006946FFF71BF8CFE7001002400004004067
:10158000000C01400000014000080140000800403C
:1015900010B586B00021009101910291039100687D
:1015A0001449884223D11448816941F008018161BE
:1015B000816901F008010491816941F004018161B0
:1015C0008069022400F0040004904FF46040CDE9EB
:1015D0000004694609480394FEF7E8FF4FF4706081
:1015E000CDE90004694606480394FEF7DFFF06B024
:1015F00010BD0000002C014000100240000C014012
:101600000008014070B5044690F83C000D460128E2
:101610000DD0012684F83C60022084F83D0042B1E0
:10162000042A18D0082A2AD00C2A4DD139E00220E9
:1016300070BD206800F0BAFC2068816941F00801A3
:1016400081612068816921F00401816120688169DC
:101650002A69114311E0206800F0D8FC20688169F4
:1016600041F4006181612068816921F480618161B8
:10167000206881692A6941EA0221816124E02068A9
:1016800000F0FAFC2068C16941F00801C1612068DE
:10169000C16921F00401C1612068C1692A6911434F
:1016A00011E0206800F01CFD2068C16941F4006170
:1016B000C1612068C16921F48061C1612068C1698C
:1016C0002A6941EA0221C16184F83D60002084F862
:1016D0003C0070BD10B5040003D094F83D0010B17B
:1016E00007E0012010BD002084F83C00204600F0F7
:1016F0000CF8022084F83D00211D206800F0E4FB76
:10170000012084F83D00002010BD704710B504464C
:101710000068012200F01EFC0B492068884202D0BC
:101720000A49884203D1416C41F400414164206878
:10173000816801F00701062903D0016841F0010129
:101740000160002010BD0000002C01400034014069
:1017500010B504460068002200F0FCFB114841F27D
:10176000111221689310814202D00F48814209D1A1
:10177000086A104206D1086A184203D1486C20F466
:10178000004048642068016A114206D1016A19428A
:1017900003D1016821F001010160012084F83D00BE
:1017A000002010BD002C01400034014070470000B3
:1017B00070B5026804461068D168536910F00F0FC5
:1017C00051D003F0010501F4907635435DD0C20796
:1017D00005D0CA0503D5E26B42F00102E26342077D
:1017E00005D5DA0703D0E26B42F00202E26382071A
:1017F00005D5DA0703D0E26B42F00402E263020788
:1018000005D5DA0703D0E26B42F00802E263E26B2F
:10181000002A34D0800604D5880602D5204600F080
:10182000C0FC20684069E16BC0F3801001F0080142
:101830000143204624D000F0A6FC206841694906F7
:101840001AD5416921F040014161606BA0B11B498B
:101850004163606BFEF712FE002810D0606B416B95
:10186000BDE87040084783060FD58B060DD520468E
:10187000BDE8704000F095BC2046FFF797FF70BDB3
:10188000FFF794FF0020E06370BD030606D50B064A
:1018900004D52046BDE8704000F02ABD4006F3D5CF
:1018A0004806F1D5D168204621F04001D1602021C1
:1018B00084F8391000F077F870BD00007721000837
:1018C00070B5040004D094F83900002510B106E08A
:1018D000012070BD84F83850204600F023F8242001
:1018E00084F839002068C16821F40051C1602046A5
:1018F00000F0A2FC2068016921F490410161206898
:10190000416921F02A0141612068C16841F4005118
:10191000C160E563202084F8390084F83A00002093
:1019200070BD000030B585B000240094019402948D
:1019300003940068184988422BD11848C16941F4C2
:101940000031C161C16901F400310491816941F044
:10195000040181618069124D00F0040004900420AC
:101960000090022001900320039069462846FEF76C
:101970001DFE0820CDE90004694628460294FEF7C2
:1019800015FE002211462620FFF776F82620FFF7E5
:1019900065F805B030BD0000004400400010024072
:1019A0000008014070477047FEE700003EB5002484
:1019B00011480094019402940E49846001600473FC
:1019C0000475012505614FF460214460C161FEF793
:1019D00097FC08B1FEF714FC0420CDE90005694628
:1019E00002940548FEF70EFC002801D0FEF708FC23
:1019F0003EBD0000002401401C0000202DE9F047FE
:101A000086B000243D4800940194029403948169B7
:101A100041F020018161816901F020010491816917
:101A200041F010018161816901F010010491816927
:101A300041F004018161816901F00401049181692F
:101A400041F00801816180692D4F00F00800049089
:101A5000002205213846FEF7ACFEDFF8A8A00022E0
:101A600003215046FEF7A5FEDFF89C9000220421DA
:101A70004846FEF79EFE052001250226CDE9000519
:101A8000CDE9024669463846FEF790FD2220CDE9B1
:101A90000004694638460294FEF788FD0320CDE92C
:101AA0000005CDE9024669465046FEF77FFD042752
:101AB000DFF858800097CDE9018469465046FEF76B
:101AC00075FD4FF41040CDE90008694602941048B6
:101AD000FEF76CFD00970396CDE901546946484630
:101AE000FEF764FD0820CDE90004694650460294E3
:101AF000FEF75CFD06B0BDE8F08700000010024074
:101B000000100140000C01400014014000001110C1
:101B1000000801400D4810B50B4901600C494160B7
:101B200000214FF480428160C0E90312416181616C
:101B3000C1610162FEF748FE002803D0BDE81040F5
:101B4000FEF75EBB10BD0000005400404C000020BA
:101B5000A0860100104810B50E4901604FF4827153
:101B6000416000218160C1604FF400720161C0E9F1
:101B700005121822C0E90721416281620A21C1626F
:101B8000FFF7A4FA002803D0BDE81040FEF738BBE9
:101B900010BD000000300140A000002010B596B03C
:101BA00000240F9410941194129413941C216846ED
:101BB0001494FEF7E0FA202107A8FEF7DCFA344877
:101BC000324901604721C0E901146421C0E90314CE
:101BD00044618461FFF771FB08B1FEF711FB4FF41C
:101BE00080500F900FA92A48FFF7B0FB08B1FEF70D
:101BF00007FB2748FFF76EFD08B1FEF701FB1394C2
:101C000013A923481494FFF715FB08B1FEF7F8FA5F
:101C10006020CDE90004029403940494059400220A
:101C200069461B480694FFF7EDFC08B1FEF7E8FA99
:101C3000042269461648FFF7E5FC08B1FEF7E0FA12
:101C4000082269461248FFF7DDFC08B1FEF7D8FA12
:101C50000C2269460E48FFF7D5FC08B1FEF7D0FA12
:101C60000794089409944FF400500A94CDE90B406E
:101C700007A907480E94FFF7B3FA08B1FEF7C0FAB8
:101C80000348FFF785FC16B010BD0000002C014092
:101C9000F800002010B58CB024216846FEF76BFADE
:101CA0000024154809944FF080410A94C0E90014BB
:101CB0004FF6FF71C0E90241046184610320CDE960
:101CC00000040120CDE902040494CDE90540079405
:101CD000694609480894FFF7A4FB08B1FEF790FA9B
:101CE000099409A904480A94FFF7A4FA002801D02E
:101CF000FEF786FA0CB010BD3801002010B58CB08C
:101D000024216846FEF737FA00241648099414493E
:101D10000A94C0E900144FF6FF71C0E90241046162
:101D200084610320CDE900040120CDE9020404947C
:101D3000CDE90540079469460A480894FFF771FB0E
:101D400008B1FEF75DFA099409A906480A94FFF75D
:101D500071FA002801D0FEF753FA0CB010BD000054
:101D6000000400407801002010B58CB024216846A2
:101D7000FEF701FA00241648099414490A94C0E9B0
:101D800000144FF6FF71C0E9024104618461032031
:101D9000CDE900040120CDE902040494CDE9054019
:101DA000079469460A480894FFF73BFB08B1FEF721
:101DB00027FA099409A906480A94FFF73BFA002874
:101DC00001D0FEF71DFA0CB010BD00000008004065
:101DD000B80100200C4810B50A4901604FF4E13108
:101DE0004160002181600C22C160C0E90412816160
:101DF000C161FFF765FD002803D0BDE81040FEF784
:101E0000FFB910BD00440040F8010020FEE7704714
:101E100070477047FEF7CABD30B595B028216846B7
:101E2000FEF7A9F914210AA8FEF7A5F918210FA8B1
:101E3000FEF7A1F901210804CDE900100024029465
:101E400002250491CDE907504FF4E010099068464F
:101E5000FEF7ACFF0F20CDE90A056802CDE90C4082
:101E600002210AA80E94FEF7AFFEA80311900F9569
:101E70000FA8FEF733FEFEF73DFF15B030BD0000A2
:101E80000D48016841F00101016041680B4A1140B1
:101E9000416001680A4A11400160016821F4802113
:101EA0000160416821F4FE0141604FF41F0181602F
:101EB0000449C00308607047001002400000FFF8AA
:101EC000FFFFF6FE08ED00E0F0B502681C4B1D4D6B
:101ED0001D4E1E4F1E4C4FF0804C984209D0A04220
:101EE00007D0604505D0A84203D0B04201D0B84227
:101EF00004D122F0700E4A6842EA0E02984209D0DC
:101F0000A04207D0604505D0A84203D0B04201D01E
:101F1000B84203D122F44075CA682A434D6922F0C1
:101F200080022A4302608A68C2620A68826298421A
:101F300001D0A04201D10969016301214161F0BDD5
:101F4000002C01400004004000080040000C00404C
:101F50000034014010B501F01F030121046A9940CB
:101F60008C430462016A9A401143016210BD10B5AE
:101F700001F01F030421046A99408C430462016A42
:101F80009A401143016210BD10B5846842EA0322F1
:101F900024F47F440A432243826010BD826822F009
:101FA00070020A4342F0070181607047F0B5026A8F
:101FB00022F001020262036A42688469124E24F030
:101FC00073050C682C4323F002058B682B430D4DE1
:101FD000A84201D0B04205D123F00807CB683B43AB
:101FE00023F00403A84201D0B04205D14D6922F488
:101FF000407215438A692A4342608461496841639B
:102000000362F0BD002C014000340140F0B5026ACB
:1020100022F010020262026A436884690D6824F4A7
:10202000E64444EA05248D6822F0200242EA0512C3
:102030000F4D104EA84201D0B04206D1CF6822F019
:10204000800242EA071222F04002A84201D0B042C8
:1020500007D14D6923F4406343EA85038D6943EA60
:10206000850343608461496881630262F0BD0000BA
:10207000002C014000340140F0B5026A22F4807265
:102080000262026A4368C46922F4007224F0730594
:102090000C68124E2C438D6842EA05220E4DA84270
:1020A00001D0B04206D1CF6822F4006242EA072292
:1020B00022F48062A84201D0B04207D14D6923F4D6
:1020C000405343EA05138D6943EA05134360C46135
:1020D0004968C1630262F0BD002C01400034014038
:1020E00030B5026A22F480520262046A4268C3690F
:1020F0000D6823F4E64343EA05238D6824F4005475
:1021000044EA0534084DA84202D0084DA84204D143
:102110004D6922F4804242EA85124260C3614968F7
:102120000164046230BD0000002C01400034014015
:1021300010B5036A046A24F001040462846924F07F
:10214000F00444EA021423F00A020A4384610262A2
:1021500010BD10B5036A23F0100303628369046A9B
:1021600023F4704343EA023224F0A00343EA01114E
:102170008261016210BD10B5406A0021C185C18431
:10218000FFF714FB10BD0168CA6822F49072CA60A0
:1021900001684A6922F001024A61202180F83A1060
:1021A000704710B590F83A10222901D0022010BDD6
:1021B0008168B1F5805F11D00169002901681FD0E5
:1021C000496801F07F03816A4A1C82620B70C18DED
:1021D000491E0904090CC18518D02BE00269816AE7
:1021E000002A0268526805D0D2B20A80816A491C6E
:1021F0008162ECE7C2F308020A80816A891CF7E772
:102200004A68816A4B1C83620A70E0E70168CA6809
:1022100022F02002CA600168CA6822F48072CA6093
:1022200001684A6922F001024A61202180F83A10CF
:10223000FFF7B8FB002010BD2DE9F041044600680F
:102240000169E26821F44051114301612169A068EC
:102250000843616908432168CA6841F20C639A43E4
:102260000243CA6020684169A26921F440711143A8
:1022700041611E49206864253226884202D1FEF75A
:102280004FFD01E0FEF73CFD00EBC00101EB00114A
:1022900060686FF018078000B1FBF0F2B2FBF5F256
:1022A000B1FBF0F37A4303EB8202B1FBF0F306EBF0
:1022B0000212B2FBF5F2B3FBF5F302F0F00202EB0F
:1022C0000312B1FBF0F3B1FBF0F0B0FBF5F0784393
:1022D00003EB800006EB0010B0FBF5F0216800F086
:1022E0000F0010448860BDE8F08100000038014014
:1022F00090F83910212901D0022070478168B1F58A
:10230000805F016A0BD04A1C026202680978516042
:10231000C18C491E0904090CC1840ED017E009883C
:102320000268C1F30801516001690029016A02D005
:10233000491C0162ECE7891CFBE70168CA6822F0CE
:102340008002CA600068C16841F04001C16000209D
:10235000704700000148FFF72BBA0000F801002089
:10236000FEE70907090E002804DB00F1E02080F8F1
:102370000014704700F00F0000F1E02080F8141DF9
:10238000704702E008C8121F08C1002AFAD170473E
:102390007047002001E001C1121F002AFBD17047E5
:1023A00070B5FEF70BFA134C05466068854220D9DC
:1023B00004211148FEF7F6F9206828446060A068FF
:1023C000401CA060C1070D480BD00068002141638C
:1023D0000A48FFF7BDF9BDE8704000210748FEF745
:1023E0004ABF00683221416300210448FFF78EF99B
:1023F000F1E770BD0000002000140140F80000204B
:10240000FEF7DCFAFFF708FDFFF7F8FAFFF7E2FC4A
:10241000FFF7CCFAFFF77EFBFFF79CFBFFF7BEFB55
:10242000FFF738FCFFF76AFCFFF79EFC0549042024
:10243000486105494FF4FA70C1F80000FFF7B0FF9A
:10244000FCE7000000140140000000200000000034
:102450000000000001020304060708090000000054
:102460000102030484240008000000201C00000076
:1024700082230008A02400081C0000201C06000085
:10248000922300080000000000000000000000008F
:102490000100000010000000000000000024F40013
:0400000508000131BD
:00000001FF
